:020000040800F2
:100000003823002089010008AD170008490F0008B7
:10001000A9170008450500080B1E00080000000095
:10002000000000000000000000000000C5190008EA
:10003000890700080000000035180008D91A0008D8
:10004000A3010008A3010008A3010008A301000800
:10005000A3010008A3010008A30100088D07000800
:10006000DD0700084D080008A3010008A3010008EF
:10007000A3010008A3010008A3010008A3010008D0
:10008000A3010008A3010008A3010008A3010008C0
:10009000A3010008A3010008A3010008A3010008B0
:1000A000A3010008A3010008A3010008A3010008A0
:1000B000A3010008A3010008A3010008A301000890
:1000C000A3010008A3010008A3010008A301000880
:1000D000A3010008251D0008A3010008A3010008D2
:1000E000A3010008A3010008A301000800F002F822
:1000F00000F03AF80AA090E8000C82448344AAF188
:100100000107DA4501D100F02FF8AFF2090EBAE885
:100110000F0013F0010F18BFFB1A43F0010318473B
:100120002877000048770000103A24BF78C878C1CB
:10013000FAD8520724BF30C830C144BF04680C60ED
:10014000704700000023002400250026103A28BF35
:1001500078C1FBD8520728BF30C148BF0B60704739
:100160001FB51FBD10B510BD00F046F81146FFF7D2
:10017000F7FF02F055FA00F064F803B4FFF7F2FF5E
:1001800003BC02F079F9000009488047094800479C
:10019000FEE7FEE7FEE7FEE7FEE7FEE7FEE7FEE737
:1001A000FEE7FEE704480549054A064B7047000094
:1001B000DD1A0008ED000008381D0020382300205B
:1001C000381F0020381F0020704770477047704765
:1001D000704710B500F008F8006810BD10B504466F
:1001E00000F002F8046010BD00487047D81C0020E1
:1001F00000487047D81C00207546FFF7F9FFAE464F
:1002000005006946534620F00700854618B020B522
:10021000FFF7C8FFBDE820404FF000064FF0000791
:100220004FF000084FF0000B21F00701AC46ACE89E
:10023000C009ACE8C009ACE8C009ACE8C0098D460B
:10024000704710B50446AFF300802046BDE810406B
:10025000FFF793BF21B1826842F00102826003E0A0
:10026000826822F00102826070470000F0B58BB016
:1002700007460C4615461E460121084601F0E8FADD
:10028000384600F0A5F900940195002002900396ED
:100290000490802005904000069080000790202068
:1002A00008900002099000200A906946384600F044
:1002B0004BFA0121024800F07FF90BB0F0BD0000BD
:1002C0000800024021B1826842F48072826003E03B
:1002D000826822F4807282607047000010B5044684
:1002E0001248844208D10121401501F0E1FA0021B1
:1002F000601501F0DDFA17E00D48844208D10121B4
:10030000001501F0D5FA0021201501F0D1FA0BE01B
:100310000848844208D10121C80301F0C9FA00212C
:100320004FF4004001F0C4FA10BD00000024014069
:1003300000280140003C014021B1826842F4801253
:10034000826003E0826822F4801282607047014676
:1003500000208A6802F004020AB1012000E00020B7
:100360007047014600208A6802F008020AB10120A5
:1003700000E000207047000030B502460020002356
:1003800050680F4C20400D790C6844EA0524204346
:10039000506090680B4C2040D1E902542C434D79B9
:1003A00044EA450420439060D06A20F470000C7C3D
:1003B000641EE4B2234340EA0350D06230BD000023
:1003C000FFFEF0FFFDF7F1FFF0B504460D460020FB
:1003D0000021092D11DDE068A5F10A0606EB4607AC
:1003E000072606FA07F18843A5F10A0606EB46063A
:1003F00003FA06F10843E0600CE0206905EB4507CD
:10040000072606FA07F1884305EB450603FA06F1CD
:1004100008432061072A0FDA606B561E06EB860739
:100420001F2606FA07F18843561E06EB860605FAD4
:1004300006F10843606322E00D2A0FDA206BD61F15
:1004400006EB86071F2606FA07F18843D61F06EB40
:10045000860605FA06F10843206310E0E06AA2F17F
:100460000D0606EB86071F2606FA07F18843A2F160
:100470000D0606EB860605FA06F10843E062F0BDBC
:10048000816841F0080181607047816841F0040192
:100490008160704700B587B001214FF4017001F011
:1004A000F7F94FF4004001F0C7F94020ADF804001F
:1004B00000208DF8070003208DF8060001A91F48D1
:1004C00000F09EFB1E48FFF709FF002002908DF808
:1004D0000C008DF80D004FF4C02004900020059012
:1004E00001208DF8180002A91548FFF745FF0623E3
:1004F000012219461248FFF767FF01211048FFF754
:100500001BFF01210E48FFF7A5FE01210C48FFF754
:10051000D9FE0B48FFF7B4FF00BF0948FFF721FFE2
:100520000028FAD10648FFF7B0FF00BF0448FFF7E4
:100530000EFF0028FAD107B000BD000000080140FE
:100540000024014000BFFEE708B501210C2001F0A6
:100550009FF94FF40060ADF8000010208DF8030003
:1005600003208DF8020069460A4800F049FB4FF469
:100570000061084800F0DAFB4FF40060ADF80000BD
:100580006946054800F03CFB4FF40061024800F06A
:10059000CDFB08BD00080140000C014000F0805177
:1005A00011B10349086001E002494860704700004A
:1005B000040402400000024021B1026842F001023E
:1005C000026004E002684FF6FE731A400260704752
:1005D00001684FF6FE721140016000210160416028
:1005E0008160C1604B49884208D14A49083949684D
:1005F00041F00F01474A083A51608AE045491431F9
:10060000884208D143490839496841F0F001414A1C
:10061000083A51607DE03F492831884208D13D4980
:100620000839496841F470613A4A083A516070E00B
:1006300038493C31884208D136490839496841F483
:100640007041344A083A516063E03249503188427F
:1006500008D130490839496841F470212D4A083AD7
:10066000516056E02B496431884208D12949083944
:10067000496841F47001274A083A516049E0254928
:100680007831884208D123490839496841F07061BE
:10069000204A083A51603CE01F49884206D1011FB8
:1006A000096841F00F01021F116032E01A4914314C
:1006B000884208D11849091F096841F0F001164A1B
:1006C000121F116025E014492831884208D11249CF
:1006D000091F096841F470610F4A121F116018E088
:1006E0000D493C31884208D10B49091F096841F482
:1006F0007041094A121F11600BE0074950318842CE
:1007000007D10549091F096841F47021024A121FE7
:1007100011607047080002400804024001460020B2
:10072000002201F0805313B1054B1A6801E0054B1C
:100730001A6802EA01030BB1012000E000207047B3
:10074000000402400000024010B50022026847F693
:10075000F0739A430C6A8B6823430C6923434C69FA
:1007600023438C692343CC6923434C6A23438C6A1B
:1007700023431A430260CB6843600B6883604B6875
:10078000C36010BD416070477047000010B5022083
:1007900000F00CF9D0B1052001F01CFF02210C483B
:1007A00000F0B9FA78B90B48007808B9012000E0E8
:1007B0000020084908700848006808B9012000E0D6
:1007C000002005490860022000F0EAF810BD000092
:1007D000000801401C0000208081214210B5042047
:1007E00000F0E4F838B3052001F0F4FE04211248CB
:1007F00000F091FAE0B911480078401C0F490870E8
:1008000008460078401E81B20122900701F034FAB8
:100810000A4800784CF6090191FBF0F0084908807D
:10082000084800880549097890FBF1F006490880DE
:10083000042000F0B5F810BD0008014014000020AD
:1008400018000020160000201A00002010B5082013
:1008500000F0ACF868B3052001F0BCFE0821154893
:1008600000F059FA10BB14480078401E1249087075
:1008700008460078012801DA012008700E48007847
:10088000401E81B20122900701F0F6F90A48007873
:100890004CF6090191FBF0F00849088008480088EF
:1008A0000549097890FBF1F006490880082000F01E
:1008B00077F810BD00080140140000201800002047
:1008C000160000201A0000200EB500F03FFB0121A9
:1008D000084600F0DDFF0121002000F071F9022040
:1008E000019001208DF80A0000208DF808000C20EE
:1008F0008DF8090001A800F06DF807208DF80000C0
:1009000001208DF8030002208DF8010001208DF8F0
:100910000200684600F04CFF0221002000F050F970
:100920000420019001208DF80A0000208DF80800B5
:100930000C208DF8090001A800F04CF808208DF873
:10094000000001208DF8030002208DF80100012035
:100950008DF80200684600F02BFF0321002000F014
:100960002FF90820019001208DF80A0000208DF851
:1009700008000C208DF8090001A800F02BF80920D0
:100980008DF8000001208DF8030002208DF8010091
:1009900001208DF80200684600F00AFF0EBD00003D
:1009A000014908607047000014040140014600201E
:1009B0000022074B1B6803EA0102054B14331B6836
:1009C0000B4013B10AB1012000E000207047000085
:1009D00000040140002123498279002A3AD00A46C6
:1009E000126803689A430B461A600A1D126803686E
:1009F0009A430B1D1A60027911440A6803681A436E
:100A00000A60184A0832126803689A43154B083383
:100A10001A601A1D126803689A43124B0C331A604D
:100A20004279102A0ED11A1F126803681A430D4B1F
:100A300008331A601A1D126803681A43094B0C33F5
:100A40001A600DE00749427911440A6803681A43A5
:100A50000A6005E0027911440A6803689A430A6053
:100A600070470000000401402DE9F04F8BB00446B0
:100A7000002007904FF48070099040F2FF1008901A
:100A800000251FE0B5420FDA04EBC60103C9CDE92A
:100A9000030104EBC60004EBC50206CA06C004EB62
:100AA000C500DDE9031206C0DDF8248006E0A6EBF0
:100AB0000806404608EBD0714FEA6108B045F6DD04
:100AC00046446D1C08988542DCDB4FF400700A90A8
:100AD0004FF0010B01E00BF1010B0A9840100A9056
:100AE0000128F8D1814665E0012000FA09FA4FEAB1
:100AF0006A000290002658E0700290FBFAF007901E
:100B0000079801F009FD0590079801F0B3FF80F008
:100B100000400690354644E002982F1804EBC702C7
:100B20000699506802F0B6FF019054F83700059915
:100B300002F0B0FF0090019903F078F8039004EB05
:100B4000C7020599506802F0A5FF019054F83700DC
:100B5000069902F09FFF0090019902F003FE0490B5
:100B600054F83500039903F061F844F8370004EBBA
:100B7000C5020499506803F059F804EBC7014860B6
:100B800054F83500039902F0EDFD44F8350004EB0C
:100B9000C5020499506802F0E5FD04EBC501486008
:100BA0005544B5F5007FB7DB761C02988642A3DB7F
:100BB00009F10109D94597DD0BB0BDE8F08F0000C0
:100BC00030B500228B071C0F0F2303FA04F20B4BE6
:100BD0008C1053F824309343084C8D1044F8253082
:100BE00023468C1053F824308C07240F00FA04F4A9
:100BF0002343024C8D1044F8253030BD08000140DD
:100C00002DE9F041024600250026002000230024A3
:100C1000002791F803C00CF00F0591F803C00CF009
:100C2000100CBCF1000F03D091F802C04CEA05058E
:100C300091F800C0BCF1000F31D0146800202BE007
:100C40004FF0010C0CFA00F3B1F800C00CEA0306F7
:100C50009E4220D183004FF00F0C0CFA03F7BC43E7
:100C600005FA03FC4CEA040491F803C0BCF1280F18
:100C700006D14FF0010C0CFA00FCC2F814C00AE0D7
:100C800091F803C0BCF1480F05D14FF0010C0CFAEC
:100C900000FCC2F810C0401C0828D1D31460B1F881
:100CA00000C0BCF1FF0F34DD546800202EE000F1DD
:100CB000080C4FF0010808FA0CF3B1F800C00CEA78
:100CC00003069E4221D183004FF00F0C0CFA03F76C
:100CD000BC4305FA03FC4CEA040491F803C0BCF1E0
:100CE000280F05D100F1080C08FA0CF8C2F814809E
:100CF00091F803C0BCF1480F07D100F1080C4FF088
:100D0000010808FA0CF8C2F81080401C0828CED35D
:100D10005460BDE8F0810246002093680B400BB19F
:100D2000012000E000207047416170470161704779
:100D30002DE9F04707464FF07A51384602F076FE2B
:100D400010D24FF07A51384602F07AFD80460024E6
:100D50003649404602F09EFE814602F033FEC5B29F
:100D6000FF2657E04FF07C51384602F05FFE1AD262
:100D70004FF07A51384602F059FF81464FF07A51D0
:100D800002F05EFD80460024FF2541464FF07E5074
:100D900002F04CFF8246254902F07CFE814602F0BB
:100DA00011FEC6B236E04FF07D51384602F03EFEED
:100DB00015D24FF07C51384602F038FF81464FF093
:100DC0007A5102F03DFD80464146184802F062FE2D
:100DD000814602F0F7FDC4B2FF2500261AE04FF06D
:100DE0007D51384602F022FF81464FF07A5102F0E1
:100DF00027FD8046FF2441464FF07E5002F016FF4B
:100E000082460A4902F046FE814602F0DBFDC5B289
:100E1000002600BF04F0F800000205F0FC0140EAE3
:100E2000C10040EAE600BDE8F087000000007F4313
:100E30002DE9F04F87B083464FF0000A00BF33E042
:100E4000BAF1000F01D0012200E000224FF400713E
:100E500041FA02F002F0E3F8804689460BEBCA0241
:100E600051680BEBCA02506802F014FE02905BF866
:100E70003A105BF83A0002F00DFE0190029902F080
:100E800071FC039002F042FCCDE9040101F0FEFD8B
:100E9000064642464B4601F00DFF044601F01CFE9B
:100EA0004BF83A000AF1010ABAF1FF0FC8DD07B0AA
:100EB000BDE8F08F2DE9F0478AB081468A460024CC
:100EC00035E0AAF1010002F0AAF8CDE902012046BE
:100ED00002F0A5F80746184A184B02F007F9CDE9C9
:100EE0000001DDE9022301F0E5FECDE9040101F096
:100EF000C5FA0022124BCDE9060102F02BFA0022BE
:100F0000104BCDE9080102F0F1F805460E4659F8FC
:100F1000340002F0FBFB2A463346CDE9080102F01B
:100F2000E5F8074601F0D8FD49F83400641C544543
:100F3000C7DB0AB0BDE8F087FCDEA63FFB21194005
:100F40000000F03F0000E03F00BFFEE708B50121D0
:100F5000042000F09DFC0E20ADF8000048208DF824
:100F6000030069460648FFF74BFE0120ADF800007C
:100F700048208DF8030069460148FFF741FE08BD8F
:100F8000000801402DE9F04104460D4616461F4673
:100F90002A2000F05DFB04F1500188B200F022FB32
:100FA00006F1500188B200F01DFB2B2000F050FB31
:100FB000284600F017FB384600F014FB2C2000F008
:100FC00047FBBDE8F08170B504460D4616462B463A
:100FD000224629462046FFF7D5FF304600F002FBA7
:100FE00070BD00002DE9F84F8046894615461E4623
:100FF000DDF828A0A5EB080087B24FEA2A2B0AF0FB
:10100000FF00009000240AE0194800F814B0012104
:1010100001EB4401164A00985054601C84B2BC4253
:10102000F2DB701E83B2681E82B249464046FFF76B
:10103000A9FF4FF480510F48FFF776FE4FF48071FF
:101040000D48FFF773FE4C4608E04FF6FF7000EACC
:101050004701074800F06CF9601C84B2B442F4DB2D
:101060004FF480510348FFF761FEBDE8F88F0000A0
:101070002C080020000C01400008014010B500F0D1
:10108000CDF84FF400716448FFF74EFE642001F084
:10109000A1FA4FF400716048FFF748FE642001F0A8
:1010A00099FA4FF480615C48FFF740FE642001F03C
:1010B00091FA112000F0CCFA782001F08BFA36205A
:1010C00000F0C6FAA02000F0A9FA3A2000F0C0FA19
:1010D000052000F0A3FAB22000F0BAFA0C2000F0CC
:1010E0009DFA0C2000F09AFA002000F097FA3320C5
:1010F00000F094FA332000F091FAB72000F0A8FA3B
:10110000352000F08BFABB2000F0A2FA322000F06C
:1011100085FAC22000F09CFA012000F07FFAC3207B
:1011200000F096FA152000F079FAC42000F090FA49
:10113000202000F073FAC62000F08AFA0F2000F099
:101140006DFAD02000F084FAA42000F067FAA12004
:1011500000F064FAE02000F07BFAD02000F05EFAA4
:10116000082000F05BFA0E2000F058FA092000F089
:1011700055FA092000F052FA052000F04FFA31200C
:1011800000F04CFA332000F049FA482000F046FA0B
:10119000172000F043FA142000F040FA152000F068
:1011A0003DFA312000F03AFA342000F037FAE1201D
:1011B00000F04EFAD02000F031FA082000F02EFAAC
:1011C0000E2000F02BFA092000F028FA092000F088
:1011D00025FA152000F022FA312000F01FFA332002
:1011E00000F01CFA482000F019FA172000F016FA57
:1011F000142000F013FA152000F010FA312000F04E
:101200000DFA342000F00AFA212000F021FA2920FA
:1012100000F01EFA10BD00000008014000B591B0BA
:1012200001210C2000F034FB0121880300F020FB99
:101230000121084600F00CFB4FF42040ADF84000BF
:1012400018208DF8430003208DF8420010A934487F
:10125000FFF7D6FC4FF48050ADF8400010208DF819
:10126000430010A92E48FFF7CBFC4FF4E060ADF827
:10127000400010A92B48FFF7C3FC4FF480512848C9
:10128000FFF754FD4FF4E0612648FFF74FFD264875
:10129000FFF79EF925480090002001901020029051
:1012A0000020039004908020059000200690079075
:1012B00008904FF40050099000200A9069461A489F
:1012C000FFF742FA4FF44040ADF82C004FF4827023
:1012D000ADF82E000020ADF83000ADF83200ADF8CA
:1012E00034004FF40070ADF836000020ADF838003F
:1012F000ADF83A000720ADF83C000BA90B480C38BC
:1013000000F042FB0122022108480C3800F028FBC3
:10131000012106480C3800F017FB11B000BD000099
:10132000000C014000080140580002400C38004009
:1013300070B504460D4600211048FFF73DF92946D7
:101340000E48FFF71FFA0D485838446601210B4834
:10135000FFF732F900BF4FF40030FFF7DFF9002844
:10136000F9D04FF40030FFF719F900BF802104488D
:1013700000F0FFFA0128F9D070BD000058000240CB
:101380000038004010B5044600BF0221084800F0B4
:10139000F0FA0028F9D02146054800F0F3FA00BF22
:1013A0008021034800F0E5FA0128F9D010BD0000C3
:1013B000003800402DE9FF5F80468A4617469B466D
:1013C0000F9D00200290CDF80080284605EBD071DB
:1013D000C1F347042046E21704EB5272D2102146B3
:1013E000E31704EB5373DB10A4EBC3030BB101232E
:1013F00000E000231A446A4392B20192A7F1200050
:10140000C7B20AEB0500401E83B208EB0400401E81
:1014100082B251464046FFF7B5FD002669E00C2D2B
:1014200007D107EB4700354901EB8000805D039051
:101430001BE0102D05D1324800EB0710805D0390B2
:1014400013E0182D07D107EB47002E4901EB0010E0
:10145000805D039009E0202D05D12B4800EB87101B
:10146000805D039001E0BDE8FF9F4FF000093AE086
:101470001098C8B9012000FA09F00399084018B182
:10148000584600F0AFF802E00E9800F0ABF8029872
:10149000401CC0B20290029890FBF4F104FB1100D2
:1014A000E8B90020029021E0012000FA09F0039938
:1014B000084020B15A4651464046FFF784FD08F1E6
:1014C00001001FFA80F80098A8EB0000A04206D1A6
:1014D000DDF800800AF101001FFA80FA06E009F148
:1014E000010000F0FF09B9F1080FC1DB00BF701C5B
:1014F00086B20198864292DB00BFB4E7063E000840
:101500007A4200086A4800083A5A00082DE9FF4F5D
:1015100085B0074691461D46DDE913A600200490DC
:10152000304606EBD071C1F3470B002434E0281B92
:10153000401EC1B20A2001F041FAB9FBF0F00A21C5
:10154000B0FBF1F201FB12080498A0B9681EA0429A
:1015500011DDB8F1000F0CD1002004FB0B71CDE9B7
:1015600000A6029088B22022129B0699FFF722FF64
:1015700010E001200490002008F13001CAB204FB01
:101580000B71CDE900A6029088B2129B0699FFF775
:1015900011FF00BF601CC4B2AC42C8DB09B0BDE89B
:1015A000F08F2DE9FE4F06460F4614469846DDE9BA
:1015B0000D5ADDF8309010E0CDE9015ACDF80090D9
:1015C0002278434639463046FFF7F4FE284605EBBD
:1015D000D07106EB61018EB2641C20780028EBD13B
:1015E000BDE8FE8F10B504464FF480510948FFF75F
:1015F0009BFB4FF480710848FFF798FB2012FFF720
:10160000C1FEE0B2FFF7BEFE4FF480510148FFF784
:101610008DFB10BD000C01400008014010B50446D0
:101620004FF480510848FFF77FFB4FF48071074863
:10163000FFF77CFB2046FFF7A5FE4FF480510248E0
:10164000FFF774FB10BD0000000C014000080140D2
:1016500010B504464FF480510A48FFF765FB4FF47C
:1016600080710948FFF760FB2046FFF78BFE4FF4BF
:1016700080710548FFF75AFB4FF480510148FFF78E
:1016800055FB10BD000C0140000801402DE9F0475A
:10169000002455E02C4830F814002C4931F814107F
:1016A000884203DD284830F8140002E0274830F86B
:1016B00014000746002F3BDD04EB44014A1C04EBF9
:1016C00044003B460021FFF75DFC4FF48051204869
:1016D000FFF72AFB4FF480711E48FFF727FB002518
:1016E0001FE0194830F81400A8420BDD284602F02C
:1016F00089F98146184902F0A3F88046FFF718FBE4
:10170000064600E000263012FFF73CFEF0B2FFF77D
:1017100039FE3012FFF736FEF0B2FFF733FE681CD9
:1017200085B2BD42DDDB4FF480510948FFF7FEFA78
:10173000054830F81400054921F81400601CC4B2B3
:10174000502CA7DBBDE8F0872C0400202C060020DD
:10175000000C0140000801400000484308B5012189
:10176000282000F095F80120ADF8000010208DF839
:10177000030003208DF8020069460948FFF740FA8C
:1017800001210748FFF7D2FA0420ADF800006946AE
:101790000448FFF735FA04210248FFF7C7FA08BDED
:1017A000000C01400014014000BFFEE7704700003C
:1017B00070B5002100230F22C47804B3154C2468AF
:1017C00004F4E064C4F5E064210AC1F10403CA40F2
:1017D000447804FA03F184781440214309010E4C43
:1017E0000678A155047804F01F050124AC40057863
:1017F0006D11AD0005F1E025C5F8004109E0047860
:1018000004F01F050124AC40044D0678761145F81C
:10181000264070BD0CED00E000E400E080E100E057
:1018200002490143024A1160704700000000FA05B6
:101830000CED00E07047000001460020034A5068AC
:1018400020F4404008435060704700000010024000
:1018500029B1064A52690243044B5A6104E0034A23
:1018600052698243014B5A617047000000100240E8
:1018700029B1064AD2690243044BDA6104E0034A03
:10188000D2698243014BDA617047000000100240C8
:1018900029B1064A92690243044B9A6104E0034A63
:1018A00092698243014B9A61704700000010024028
:1018B00029B1064AD2680243044BDA6004E0034AC5
:1018C000D2688243014BDA6070470000001002408A
:1018D0002DE9FF4781468A4600210F4688460024AD
:1018E0000CE059F8340001F011FF3A464346CDE9C7
:1018F000020101F023F907468846641C5445F0DBD9
:10190000504601F08CFB02460B46CDE902013846F9
:10191000414601F0CFF905460E46002410E059F883
:10192000340001F0F3FE2A463346CDE9000101F010
:1019300003FECDE9020101F0CFF849F83400641C40
:101940005445ECDBBDE8FF8721B1028842F040023C
:10195000028004E002884FF6BF731A40028070478D
:101960001AB183880B43838002E083888B43838092
:1019700070470246002013890B400BB1012000E0A4
:10198000002070478181704710B50022028802F460
:1019900041520B884C8823438C882343CC882343B3
:1019A0000C8923434C8923438C892343CC892343CB
:1019B0001A430280838B4FF2FF74234083830B8A88
:1019C000038210BD704710B500F002F810BD000092
:1019D0000CB50020019000903348006840F480303E
:1019E0003149086000BF3048006800F400300090C2
:1019F0000198401C0190009818B90198B0F5A06FAB
:101A0000F1D12948006800F4003010B101200090A5
:101A100001E0002000900098012843D1234800688D
:101A200040F01000214908600846006820F00300DB
:101A300008600846006840F0020008601A484068E4
:101A4000194948600846406848600846406840F4C4
:101A5000806048600846406820F47C104860084672
:101A6000406840F4E81048600846006840F0807024
:101A7000086000BF0C48006800F000700028F9D032
:101A80000948406820F0030007494860084640685C
:101A900040F00200486000BF0348406800F00C00BE
:101AA0000828F9D10CBD00000010024000200240BF
:101AB000042808D14FF0E021096941F004014FF0FA
:101AC000E022116107E04FF0E021096921F00401F3
:101AD0004FF0E022116170477047000010B51348C5
:101AE000006840F00100114908600846406810494C
:101AF00008400E494860084600680E4908400B49F6
:101B000008600846006820F48020086008464068A5
:101B100020F4FE0048604FF41F008860FFF753FF79
:101B20004FF000600449086010BD00000010024042
:101B30000000FFF8FFFFF6FE08ED00E030B587B0CB
:101B400005460C4601210846FFF792FEADF81450F9
:101B5000ADF810400020ADF81600ADF8120004A951
:101B60004FF0804000F08CF86020ADF800000120BC
:101B7000ADF802000220ADF80800C820ADF806005C
:101B80006946C00600F026F80121880700F012F827
:101B90000121880700F002F807B030BD21B10288AA
:101BA00042F00102028004E002884FF6FE731A4000
:101BB0000280704731B1B0F8442042F40042A0F8EE
:101BC000442005E0B0F84420C2F30E02A0F84420FF
:101BD0007047000070B5002400220023058C4FF6EA
:101BE000EF7635400584028C8388048B48F6FF75B8
:101BF0002C404FF6FF452C400D884FF6FF7606EA45
:101C000005252C434FF6DF752A400D8906EA051598
:101C10002A434D8806EA05152A43154DA84202D0ED
:101C2000144DA8421DD14FF67F752A404D894FF6BD
:101C3000FF7606EA05152A434FF6BF752A408D88C0
:101C400006EA05152A434FF6FF352B404FF2FF7584
:101C50002B408D8906EA85052B43CD8906EA85054B
:101C60002B4383800483CD880587028470BD0000E8
:101C7000002C014000340140018582827047000041
:101C8000002202881D4B98420ED01D4B98420BD06B
:101C9000B0F1804F08D01B4B984205D01A4B9842A8
:101CA00002D01A4B984204D14FF68F731A404B88DA
:101CB0001A43174B984207D0164B984204D04FF660
:101CC000FF431A40CB881A4302808B8883850B8898
:101CD00003850A4B98420BD0094B984208D00E4B13
:101CE000984205D00D4B984202D00D4B984201D13D
:101CF0000B7A03860123838270470000002C014089
:101D0000003401400004004000080040000C004086
:101D10000010004000140040004001400044014019
:101D20000048014010B540F225511D4800F03EF832
:101D300010B31B4800F064F8C4B21A48008800F4DD
:101D40000040C8B91748008800F4804060B10A2CF0
:101D500003D000201349088020E01248008840F496
:101D600000401049088019E00D2C06D10D4800886C
:101D700040F480400B49088010E00A480088C0F316
:101D80000D0009490C5407480088401C054908808B
:101D900008460088C72801DD0020088010BD00002B
:101DA0000038014028000020101C002070B50246B9
:101DB000002400230025002040F66A16B14200D11D
:101DC00000BFC1F3421501F01F03012606FA03F319
:101DD000012D02D19689334006E0022D02D1168AE8
:101DE000334001E0968A33400C12012606FA04F4CF
:101DF0001688344013B10CB1012000E0002070BD02
:101E000001468888C0F30800704700BFFEE749001C
:101E100050EAC12018BF04204A0D18BF40F001004D
:101E200040F2FF72B2EB515F08BF40F002000128A0
:101E300008BF0520704700002DE9F74F144694B005
:101E40000021C4E902111599079121F00045C94903
:101E50008D4206DC1599C4E9000117B00020BDE8E9
:101E6000F08FC549DFF814A3A9423CDD0799C44EA1
:101E70000029C44FC44A1599534619DD01F05CFB93
:101E8000554506D0C14AC24B01F056FBC4E90001DA
:101E90000AE04FF0D352BE4B01F04EFB32463B46B8
:101EA00001F04AFBC4E9000117B00120BDE8F08F42
:101EB00000F044FE554506D0B44AB54B00F03EFE56
:101EC000C4E900010AE04FF0D352B14B00F036FEF6
:101ED00032463B4600F032FEC4E9000117B04FF035
:101EE000FF30BDE8F08FAB49A942159978DB21F0AE
:101EF000004183468846A84AA84B01F0F7F8002223
:101F0000A74B00F01BFE01F02DF8099001F087F8B7
:101F100006460F469C4A534601F0E8F843465A46A7
:101F200001F018FA80468A46984A994B304639465D
:101F300001F0DCF82A0D01250B924246534601F0D0
:101F400009FA032DC4E9000139D00B98C1F30A51F5
:101F5000401A05EB45111139814230DA9148C346E8
:101F6000784400EB0510CDF80CA00C90D0E90023CC
:101F70003046394601F0BAF802460B460491069005
:101F80005846039901F0D8FA80468A4602460B4625
:101F90005846039901F0D0FA049B069A01F0CCFA56
:101FA00083460C9803913946D0E90223304601F06C
:101FB0009DF85A46039B01F0BFFA6D1CBDE70798D8
:101FC0000028A2BF099817B0BDE8F08F616881F0C2
:101FD00000416160099817B04042BDE8F08FFFE70B
:101FE00084461598C1F31301C0F30A50A0F2F530EE
:101FF0004FEA601800F01F06C6F120001390002081
:102000000690079041F4801E05206D4676B1664A21
:1020100008EB00017A4452F8213002EB8101B34011
:102020004A68139922FA01F1194305E05F4908EB68
:102030000002794451F82210A1FB0E27A1FB0C13DA
:102040001A449A4234BF0123002303EB070A05EB2D
:102050008003D3E901B70F448F4234BF012100212F
:1020600093448B4411B1934502D903E0934501D2C7
:10207000012100E00021C3E901B7514445F82010D7
:10208000011EA0F10100C1DC0298059F00F1005083
:10209000800F12900298DDE90356800000F0BFFF28
:1020A000834628460D9100F0D1FF6FF01D0201F02C
:1020B00064FECDE90E01304600F0C8FF6FF03D022E
:1020C00001F05BFE80468A46384600F0BFFF6FF0A5
:1020D0005D0201F052FE074642465346119100F060
:1020E0002DFDDDE90E2300F029FD5A460D9B00F081
:1020F00025FD00250E465A4628460D9B01F01CFA88
:10210000DDE90E2301F018FA4246534601F014FAB5
:102110003A46119B01F01EF9DFF898A0244A534675
:1021200000F0E4FF07468846234A244B3146284600
:1021300000F0DCFF3A46434600F000FD07468846C3
:102140004FF0A84253463146284600F0CFFF3A46AA
:10215000434600F0F3FC159A12F0004F04D0129A97
:1021600081F0004152421292C4E90001129817B066
:10217000BDE8F08FFB21E93F7CD90240FB21F93F0C
:102180007370032E8A19A33B000040543163621A16
:1021900061B4D03DFB21394183C8C96D305FE43F54
:1021A0000000E03FF4570000705700005257000055
:1021B000182D4454FB21F93D3326A611460B113C42
:1021C0002DE9FF4D21F0004807460C46B8F1795F34
:1021D00008DA00F0C7FE002801BF0020324904B031
:1021E000BDE8F08D3A4623461046194600F07EFFC2
:1021F000054602462D480E460B460621784400F05F
:102200005DF82A46334600F071FFDDE9022382467D
:102210008B463846214600F069FF04460F46524679
:102220005B462846314600F061FF22463B4601F0FE
:1022300083F907468A464FF0FF322846314601F0BF
:102240009CFD1B4A90450ADA3A46534601F074F960
:1022500004B00022BDE8F04D134B01F07BB8154AE5
:102260004245A8BFA8F500154FF00004B8BF124DB5
:1022700022462B4601F060F90646884622462B4648
:102280000020094901F058F904460D463A465346E4
:102290003046414601F050F904B022462B46BDE8D5
:1022A000F04D01F057B800000000F03F2855000045
:1022B0003333D33F0000E93F0000D23F2DE9F04126
:1022C0004F1E00EBC7010446D1E9000115461E462A
:1022D00037F006020DD02A46334600F007FF7F1E76
:1022E00004EBC703D3E9002300F028FC37F0060213
:1022F000F1D1022F25D0042F13D0062F18BFBDE82F
:10230000F0812A46334600F0F1FED4E90A2300F0BA
:1023100015FC2A46334600F0E9FED4E9082300F014
:102320000DFC2A46334600F0E1FED4E9062300F016
:1023300005FC2A46334600F0D9FED4E9042300F018
:10234000FDFB2A46334600F0D1FED4E9022300F01B
:10235000F5FB2A46334600F0C9FED4E90023BDE868
:10236000F04100F0EBBB00002DE9FF4D054621F0E8
:10237000004084B00C46B0F1795F0BDA2846FFF7D5
:1023800046FD042808BF00F06FF8284608B0214633
:10239000BDE8F08D2A460B46104600F0A7FE064623
:1023A0000F462A46234600F0A1FE804626488A466C
:1023B00032463B4605217844FFF780FF834610985C
:1023C000029160B3214A224B4046514600F08EFEF6
:1023D000CDE900015A4640465146029B00F086FE78
:1023E00082468846DDE906014FF0FF3201F0C5FC68
:1023F0005246434601F0A0F832463B4600F076FED6
:10240000DDE9062301F098F8DDE9002301F094F8F6
:1024100008B02A462346BDE8F04D00F09BBF0B46AE
:102420005A463046394600F061FE084A084B00F033
:1024300085FB4246534600F059FE08B02A46234623
:10244000BDE8F04D00F07ABB665400004955555583
:102450005555C5BF012201F090BC0022134610461D
:10246000114600F027BC0000024A0020110701F0CD
:1024700084BC000001FDFFFF00BF704700B5244B86
:1024800021F0004287B09A42DCBF0022134629DDCA
:10249000204B9A4208D140B94FF00100FDF79EFE53
:1024A000FFF7DBFF07B000BD03DBFFF7D3FF07B08B
:1024B00000BD02AAFFF7C0FC10F0030104BF0DF13C
:1024C000080C9CE80F000DD0012001290ED0022934
:1024D00014D00DF1080C00909CE80F00FFF744FFAA
:1024E00007B000BDFFF76CFE07B000BD0DF1080C92
:1024F00000909CE80F00FFF737FF05E00DF1080C96
:102500009CE80F00FFF75CFE07B081F0004100BDC2
:10251000FB21E93F0000F07F0146802905DAC1F187
:102520008000064A52F820007047A1F18000034A5B
:1025300052F8200080F00040F6E700000C1A00205E
:102540002DE9FC5F83464FF0000A18E0504600F08A
:1025500066FD06460C4A0D4B00F0C8FD04460022FD
:102560004FF0814300F0A6FB804600F033FACDE93E
:10257000000100F0B1FA4BF82A000AF1010ABAF1A1
:10258000800FE3DDBDE8FC9FFCDEA63FFB21194088
:1025900010B56FF00400FFF78BFA0A4800680A498B
:1025A000B0FBF1F0094908700846007800EB4001E3
:1025B000C1EBC0104FF6FF7101EAC000044908806A
:1025C00010BD00000000002000127A001E00002054
:1025D000200000200146114A12884A434FF0E023B0
:1025E0005A6100229A611A46126942F001021A6188
:1025F00000BF4FF0E022106900F001021AB100F4B0
:102600008032002AF5D04FF0E022126922F0010258
:102610004FF0E0231A6100229A61704720000020E9
:10262000ADF5067D4FF4A060FFF7FAF8C548FFF757
:1026300087FFFFF7ADFFFFF791F8FEF71FFD0020C2
:10264000F0231A4601460090FEF7CCFCFEF73CF959
:10265000FDF77AFF4FF0000BBB4800784CF60901FC
:1026600091FBF0F0B9490880B9480088B64909786B
:1026700090FBF1F0B749088000BF00BF00208590B3
:1026800084901021CDE900014FF6FF73B2A20146FC
:102690000290FEF786FF00201021CDE900014FF6E1
:1026A000FF73AFA2014602905620FEF77AFF00208A
:1026B0001021CDE900014FF6FF73AAA20146029056
:1026C0007420FEF76EFF00201021CDE900014FF6C7
:1026D000FF73A6A201460290BC20FEF762FF002015
:1026E0001021CDE900014FF6FF73A1A20290FEF781
:1026F00058FF00201021CDE900014FF6FF7398A28A
:1027000002905620FEF74DFF00201021CDE9000178
:102710004FF6FF7398A202907420FEF742FF10203C
:1027200000214FF478420523CDE90021029087482B
:10273000028810212020FEF7E9FE102000214FF42E
:1027400078420323CDE900210290824802881021BB
:102750009420FEF7DBFE7C480078401E81B240F2F8
:102760007E50FFF7EBF94FF40073854A85498648A0
:10277000FDF77CFDFDF78EFEE3E001218348FEF7C7
:10278000CAFAD8B982480078C043814908708148A4
:102790000068C0438049C1F888017D48007818B9B5
:1027A00000207E49086002E001207C49086000BFEB
:1027B00001217648FEF7AFFA0028F9D04FF0000B60
:1027C0000FE06F4931F81B0001F01CF9744941F822
:1027D0003B00002001EBCB0148600BF101001FFA28
:1027E00080FBBBF5007FECDB4FF400716C48FFF71A
:1027F0006FF84FF400716A48FEF75CFB6848FEF71B
:1028000033F96748FEF714FB002425460020859025
:10281000824640E0624A0AF1010152F8310000F0BC
:1028200075FF804622462B4600F05EFD0CD25C4AC6
:102830000AF1010152F8310000F068FF04460D462C
:102840000AF1010080B28590554A0AF1010152F85F
:10285000310000F05BFF8046524A534B00F046FCCB
:10286000CDE9020100F0AEFB04A921F81A0004A88A
:1028700030F81A00CF2802DDCF2021F81A0004A872
:1028800030F81A00C0F1EF00484921F81A000AF1A7
:1028900001001FFA80FABAF1FF0FBBDBFEF7F6FE6C
:1028A0002C4909888598484380B28490404A414B1E
:1028B0002046294600F01AFC804600F083FB80B2D7
:1028C000039000F0C3FB06460F46102000214FF492
:1028D00078420523CDE9002102902020849AFEF75A
:1028E00015FE3046394600F06DFB80461020002171
:1028F0004FF478420423CDE900210290424694200F
:10290000FEF704FE2C480078D8B1102000214FF4C7
:1029100078420523CDE9002102900C48028810215D
:102920002020FEF7F3FD102000214FF4784203230E
:10293000CDE9002102900748028810219420FEF77B
:10294000E5FD1AE70C1A00201400002018000020F2
:10295000160000201A0000206672653A0000000090
:10296000487A0000416D703A000000006D5600008A
:102970006672613A000000006673633A000000006E
:102980002C0000204C2401400800024000080140B7
:102990001D0000208881224200802242AC01214299
:1029A0000C0A00209A9999999999D93F2C040020F2
:1029B000F163CC5D4BC8E93F1C00002010B5024616
:1029C000012000E050430B1EA1F10104E1B2F9D156
:1029D00010BD000000B5254B21F0004287B09A429F
:1029E00003DC0022134600922BE0214B9A4208D1CF
:1029F00040B94FF00100FDF7F1FBFFF72EFD07B0E6
:102A000000BD03DBFFF726FD07B000BD02AAFFF7FC
:102A100013FA10F003014FF001000DD0012914D07A
:102A200002291AD00DF1080C9CE80F00FFF7C8FB33
:102A300007B081F0004100BD0DF1080C00909CE84A
:102A40000F00FFF791FC07B000BD0DF1080C9CE8EA
:102A50000F00FFF7B5FB07B000BD0DF1080C0090AB
:102A60009CE80F00FFF780FCE2E70000FB21E93F54
:102A70000000F07F0146802901DDC1F58071024828
:102A800050F82100704700000C1A00202DE9F04199
:102A900006460F4600F06AFC041E0D4618BF0120D2
:102AA000284320F00040C0F17F6000F1E040C00FFB
:102AB0000ED0301C18BF0120384320F00040C0F178
:102AC0007F6000F1E040C00F04BF0120FDF786FBEE
:102AD00020462946BDE8F08121F00042A2F1605273
:102AE000B2F5801F01F0004328BFD2F17F6C0BD9F3
:102AF0005FEA001C43EAC20242EB507018BF704705
:102B000028BF20F001007047B2F5801FBCBF1846F7
:102B100070474FEA410C1CF5001F02D2084601F035
:102B200080B870B500F08CFB00000089FFF7F6BF9D
:102B30004FF00040A0F580007047000010B591EA0A
:102B4000030F48BF83F0004300F1FE84841A71EB49
:102B5000030C05D2121943EB0C03001B61EB0C01B3
:102B6000DFF824E14FEA1154A4EB135C1EEA430F93
:102B700018BF9EEA445F73D023EA0E03DCF1200EF7
:102B800021EA045143F4801332D322FA0CFE10EBF5
:102B90000E0023FA0CFE41EB0E01CCF1200E03FADD
:102BA0000EFE10EB0E0051F10001B1F5801FCCF1CB
:102BB000200E32D201EB045112FA0EF2BDE81040A1
:102BC00058BF7047401C38BF5FEA420218BF7047C9
:102BD000002814BF20F0010041F100014FEA410339
:102BE00013F5001F38BF7047A1F1C04100F076BB5C
:102BF000012A43EB0302ACF1200CDCF11F0E32BFC3
:102C00004FF0000E23FA0CF310EB030041EB0451DC
:102C1000B4EB115FD0D0A1EB045101F5801149084C
:102C20005FEA300001EB04510ED350F1000038BFD1
:102C300012FA0EFE08D1BDE81040C9E7401C38BFAB
:102C40005FEA4202CAD1C3E7BDE810404FEA410340
:102C500013F5001F38BF7047A1F1C04100F03EBB23
:102C60009EEA445F08D011EA5E0FBDE8104004BF41
:102C700001F0004100207047BDE8104070B500F041
:102C8000DFFA00BF64FBBE3E0000E0FF02494FF0E8
:102C9000000001F040B800BF0000F87F491058BFA5
:102CA000C1F140415B1058BFC3F140438B42EFF389
:102CB000008070472DE9C04130B4DFF8A0C23CEA83
:102CC000111418BF3CEA131400F0EC8081EA0305EC
:102CD0001CEA111444EAD57418BF1CEA131500F05D
:102CE000C780A4EB05044FF0004545EAC12145EA41
:102CF000C32341EA505143EA525304F17F7499428D
:102D000004F500344FEAC0204FEAC22208BF9042C7
:102D100000F09C804FEA13650FF24016765D4FEA93
:102D2000134506FB05F7C7F1807706FB07F74FEA67
:102D3000D737A7FB03687642C8F58038A7FB06CED5
:102D400038BFA8F1010807FB08E64FF0000EA6FB0C
:102D5000028CE6FB03CEDCF1000CCEF1004E38BF56
:102D6000AEF1010EA6FB0C584FF000074FF0000526
:102D7000E6FB0E87A1FB08C6A0FB07CE16EB0E06EE
:102D800045F10005E1FB076515F1E04E7EBFA4F5B6
:102D900080345FEA46066D4116F1800745F1000573
:102DA0004FEA17274FEA066647EA0567A6F1DE46AF
:102DB000B6F1805F4FEA15251FD9384624F0010C83
:102DC00005EBC471BCF1FE6F01EB0C1102D8F0BC35
:102DD000BDE8008124425CBF01F5801E9EEAC47FED
:102DE00002D4F0BCBDE80081244238D4F0BCA1F18B
:102DF000C041BDE8004100F071BA4FEAD22242EA78
:102E000043524FEAD323A7FB02864FEAD02040EA81
:102E1000415007FB03661EEA0E0F4FEAD12105FB66
:102E2000026658BFA6EB0056B6EB00564FEA520EAC
:102E30004EEAC37E18EB0E0E56EB530EBDD518EBC3
:102E400002085E417F1C55F10005B6E74FF480157E
:102E50004FF000074FF000064FF00008ADE7F0BC60
:102E60004FF0000001F1C04101F00041BDE80081D8
:102E700011EA0C1F0CEA131500D00CE013EA0C1F2A
:102E800000F025804FF00000F0BC81EA030101F062
:102E90000041BDE80081F0BCBDE8004181EA0301CA
:102EA00000F01CBAF0BCBDE8004170B500F0C8F9F4
:102EB000097EFC3E00F007B881EA03014FF00000F4
:102EC00001F00041704781EA030100F007BAF0BC4D
:102ED000BDE800414FF0000021497047FFFDFBF9BC
:102EE000F7F5F4F2F0EEEDEBE9E8E6E4E3E1E0DE3D
:102EF000DDDBDAD8D7D5D4D3D1D0CFCDCCCBCAC8AF
:102F0000C7C6C5C4C2C1C0BFBEBDBCBBBAB9B8B7D5
:102F1000B6B5B4B3B2B1B0AFAEADACABAAA9A8A8C8
:102F2000A7A6A5A4A3A3A2A1A09F9F9E9D9C9C9B96
:102F30009A99999897979695959493939291919041
:102F40008F8F8E8E8D8C8C8B8B8A898988888787D2
:102F50008685858484838382828181800000FF0747
:102F60000000F87F4FEA41034FEA5353A3F5806313
:102F7000D3F11E03C8BFD3F1210C0CDD4FF000428A
:102F800042EAC12242EA505232FA03FC8CEAE17C66
:102F9000ACEBE1707047102BC4BF0020704703F505
:102FA000787CBCF1FF3F04D06FF0004282EA210040
:102FB000704770B500F044F94992248000207047B2
:102FC000F2E700004FEA1153A3F58063D3F11E032B
:102FD000A8BFD3F1200C08DB4FF0004242EAC12227
:102FE00052EA505232FA03F0704709420BD4102BC8
:102FF000C4BF0020704703F5787CBCF1FF3F05D0CB
:103000004FF0FF3070474FF00000704770B500F090
:1030100017F900BF4992248000207047F0E710F0B4
:10302000004248BF4042B0FA80F310FA03F10AD0E0
:10303000C3F11D0303F580634FEA415002EB0352D5
:1030400002EBD12170474FF000007047B0FA80F3D7
:1030500010FA03F10AD0C3F11D0303F580634FEAB0
:1030600041504FEA035202EBD12170474FF000006C
:103070007047000051EA030C17D41CF5801F58BF9D
:10308000BCF5801F00F10680994218BF704708BF49
:103090009042704707D711F5801F58BF13F5801F66
:1030A00019D499427047894270471CF5801F08D592
:1030B000BCF5801FF7D58B4218BF704708BF82420E
:1030C00070474FF4001C1CEB410F38BF1CEB430F43
:1030D00001D28B42704770B500F0B2F892244900DB
:1030E0004FF000514FF08053FFF7D8BDDFF848C1D3
:1030F00070B51CEA111E1EBF1CEA13159EEA0C0FC8
:1031000095EA0C0F00F06F8081EA030423EA4C1368
:103110004EEAD47E21EA4C1141F4801143F480132D
:10312000AE44A1FB024CA0FB0365AEF17F7E3619D5
:1031300055EB0C05A1FB034C4CF10003A0FB021C5A
:1031400016EB0C06654153F10003094218BF46F027
:10315000010613F4007F0BD14FEA03314FEA05302B
:10316000340341EA155140EA16506FF003020AE0B9
:103170004FEAC3214FEAC520F40241EA555140EA23
:1031800056506FF0020202EB2E4201EB025585EA27
:10319000CE710AD05FEA440C18BF24F0004450F10D
:1031A000000041F1000120EAD47040F2FE7C62454B
:1031B00000D270BDA84214BF4FF080444FF040448D
:1031C000002E08BF0024BEF1806FA8BFA1F1C0414E
:1031D000BDE8704080F282804FF0000001F1C041F4
:1031E00001F0004170479EEA0C0F0CEA131518BF5E
:1031F00095EA0C0F06D04FF0000081EA030E0EF0A6
:10320000004170BD00F01CF88900013E00F007B8D5
:1032100000F009B84FEA430C5FEA5C5C08D081EA31
:10322000030100F05BB84FEA410C5FEA5C5CF6D149
:103230004FF00000014970470000FF070000F87FD1
:103240000EF1020E2EF0030E5EF8046B364205D42A
:10325000012A43EB030515F5001F12D8012841EBA5
:10326000010C1CF5001F0CD80ED14FEAD17C15F5CE
:10327000001F0CEB4C0C0CF1020C08BF4CEBD37C88
:1032800004E04FF0080C01E04FEAD37C0CEB4C0556
:1032900026FA05F606F00706B6F1040C06D20EEB88
:1032A000860CBDE870404CF0010C6047DFE80CF084
:1032B000090B02024FF000414FF00000A1F5002180
:1032C00070BD19461046012851EB010418BFD4F512
:1032D000001484BF002001F0004170BD0808A0F573
:1032E00000114FEA3101704753EA010C17D41CF565
:1032F000801F58BFBCF5801F00F106808B4218BFAD
:10330000704708BF8242704707D713F5801F58BF28
:1033100011F5801F19D48B4270479B4270471CF5F2
:10332000801F08D5BCF5801FF7D5994218BF70479C
:1033300008BF904270474FF4001C1CEB430F38BF8E
:103340001CEB410F01D2994270470FB40CBC03BC77
:10335000FFF7C1BE91EA030F10B581F000413FF5C0
:10336000F5AB83F0004300F0EFB800002DE9F04129
:1033700001F5801CBCF5001FC0F2C3804FEA115C50
:1033800021EA0C510CF1FD0C41F480115FEA5C0C58
:103390000CF5C07C01D3400049413DA4890241EABB
:1033A000905187028E0E0A0CA45D04FB04F602FB0A
:1033B00006F6C6F14046A4FB0662F60D46EA422632
:1033C00006FB06F4A4FB01235242C3F1404338BF7D
:1033D0005B1EA6FB02420024E6FB0324D20B42EA5A
:1033E0004446A6FB0623A1FB02E2A3FB07E4A418C4
:1033F0004FF0000252F10002E3FB01426442C2F1CD
:10340000404E38BFAEF1010EA6FB04234FF0000280
:10341000E6FB0E32A2FB03464FF00004B61954F14E
:103420000004E2FB0264A1FB06E6A4FB07E816EB3E
:1034300008064FF0000858F10008E4FB01687642E6
:10344000C8F1405838BFA8F10108A2FB06E4A3FB6D
:1034500008E52D194FF0000454F10004E2FB085474
:10346000A1FB05E6A7FB04E818EB06084FF00006F1
:1034700056F10006E1FB048618F1200556F100061E
:10348000A809A8F11B08B10908F03F08B8F10A0F14
:1034900040EA86601CD901EB0C51BDE8F08100BF09
:1034A000FCF5EEE8E2DDD8D3CFCBC7C3C0BDB9B6DB
:1034B000B4B1AEACA9A7A5A3A19F9D9B9A989695E0
:1034C0009392908F8D8C8B89888786858483828167
:1034D000A0FB006800FB01F208EB4208B8EB87286C
:1034E00007D5341858EB0104D5D5401C51F1000123
:1034F000D1E7341A78EB0104CDD4401E71F10001FC
:10350000C9E75FEA4C0C5FEA9C5C0DD105D34FF034
:10351000000001F00041BDE8F081BDE8F04170B568
:10352000FFF78EFE6DDBFFBEBDE8F0414FF00000FF
:10353000004970470000F87F10B591EA030F48BFBB
:1035400083F000433FF502AB841A71EB030C07D202
:1035500012198CF0004C43EB0C03001B61EB0C01C7
:10356000DFF8A4E14FEA1154A4EB135C1EEA430F09
:1035700018BF9EEA445F00F0B08023EA6E03524217
:1035800021EA0451C3EB6E0338BF5B1EDCF1200E51
:1035900025D322FA0CFE10EB0E0043FA0CFE41EB91
:1035A0000E01CCF1200E03FA0EFE10EB0E0051F1CD
:1035B0000001CCF1200E29D412FA0EF201EB0451D5
:1035C000BDE8104058BF7047401C1CBFB2F1004F0F
:1035D000704700280CBF491C20F00100704712EB17
:1035E000020E43EB030218BF4FF0010E4EEA4202F7
:1035F000ACF1200CDCF11E0E54D943FA0CFE10EB9A
:103600000E0051F1FF31CCF11E0ED5D50EF1010E99
:1036100012FA0EFE404141EB010101EB445C5FEA0E
:103620005C5C10D910EBDE7001EB045138BFBEF1C9
:10363000004FBDE8104018BF704700280CBF491C60
:1036400020F00100704730D24FEAD42C11F5001160
:1036500024F400641BD0B1FA81F20B3AA41AA41E20
:10366000D2F12003914030FA03F31943904001EB6B
:10367000CC71002C01EB0451BDE81040A8BF70478D
:1036800001F1C0414FF0000001F000417047B0FA75
:1036900080F310FA03F100D110BDE41A173C48057D
:1036A000C90AE4E701EB045110BD491001EB0451D4
:1036B000BDE810404FEA300002E04FF000017047D3
:1036C0004A0008BF0042F8D0B2F5001F28BF70477B
:1036D00001F000414FF0000070479EEA445F07D0C0
:1036E00011EA5E0FBDE8104004BF002100207047C2
:1036F000BDE8104070B5FFF7A3FD00BF40DFF63E08
:1037000083F00041104670470000E0FF43004FEA9D
:10371000D30C4FEA3C0C43401FBF40070CF16051F3
:1037200013F0FE4F70471CF0006F03D100200CF027
:10373000004170470CF0004343EA507010B540EA76
:10374000CC0000F028FA00BF000000924FEA000110
:10375000FFF7C4BD4FF000414FF00000A1F500217C
:103760007047000090EA010F48BF81F0004100F16E
:103770006482421A3CBF801A89184FEAD0524FF037
:103780007F4C1CEA410FA2EBD15318BF9CEA026F99
:1037900000F03B804FF0004C4CEA00204CEA012145
:1037A00021FA03FC10EB0C0C1ED202F1FF325FEA8F
:1037B0001C2040EBC25038BF70471CF07F0F4FEA0F
:1037C000400C18BFBCF17F4F38BF7047C3F12003D6
:1037D000994008BF20F00100BCF17F4F38BF70470F
:1037E000A0F1C04000F01DBA4FEA3C00000A40EBD7
:1037F000C25028BF1CF0FF0F4FEA400CE6D018BFA4
:10380000BCF17F4F38BF7047EAE79CEA026F05D0F2
:1038100010EA5C0F08BF00F00040704710B500F0E0
:10382000BAF900BF64FBBE3E401058BFC0F1404033
:10383000491058BFC1F140418142EFF30080704709
:103840004FF47F0C1CEAD0121EBF1CEAD11392EA7F
:103850000C0F93EA0C0F00F0858090EA010F48BF2F
:1038600042F4807240F4000C41F400002CF07F41DF
:1038700020F07F4000B58142A2EB03020FF2081C4A
:10388000ACEB504EC0F100009EF800E04FEA4E0E47
:1038900000FB0EFC38BF49004FEA2C1C02F5FA026F
:1038A0000CFB0EF34FEACE1E4FEA112C4FEAC1215A
:1038B0000EEB635E42EB22420EFB0CFC4FEA1C5304
:1038C00000FB03114FEA112C4FEA01310EFB0CFCF7
:1038D0004FEADC4C00FB0C11C14228BF09184CEB2D
:1038E00003335DF804EB10EB410143EBC250B2F53A
:1038F0007C0F38BF704729D512F0F00F1CBF00F1C4
:10390000C04000F000407047008182838485868734
:1039100088898B8C8D8E8F919293959697999A9C8E
:103920009D9FA0A2A3A5A7A8AAACAEB0B2B3B5B7FD
:10393000B9BCBEC0C2C5C7C9CCCED1D4D7D9DCDFD3
:10394000E2E6E9ECF0F3F7FAFE0000004FEA400C83
:103950000CF1807CBCF17E4F28BF7047B0F1C040B5
:1039600000F05FB990EA010F0CEAD11348BF42F4AE
:103970008072624538BF634507D213F47F0F16D0BB
:1039800080EA010000F00040704710B500F003F934
:10399000097EFC3E00F005B880EA010000F000401E
:1039A000704780EA010000F0004000F03AB912F4DC
:1039B0007F0F04BF0248704780EA010000F031B970
:1039C0000000C07FC10DD1F19E0206DB4FEA00234B
:1039D00043F0004323FA02F07047004207D54FEA54
:1039E0004001B1F1FE4F02D24FF00000704710B518
:1039F00000F0D1F849922480002070476FEA20003F
:103A000070470000B0FA80F310FA03F2C3F19D038F
:103A10000AD0D90501EB1220530638BF704700F1D8
:103A2000010008BF20F001007047000050EA010CBF
:103A300000F113801CF5000F58BFBCF5000F01D436
:103A40008842704707D710F5000F58BF11F5000FD7
:103A500015D488427047894270471CF5000F04D581
:103A6000BCF5000FF7D5814270474FF0807C1CEB0E
:103A7000400F38BF1CEB410F01D28142704710B597
:103A800000F089F8922449004FF000504FF0805127
:103A9000FFF7CABE4FF47F0C1CEAD0121EBF1CEA0F
:103AA000D11392EA0C0F93EA0C0F00F0478090EAD2
:103AB000010F48BF42F480724FF0004C4CEA0020E6
:103AC0004CEA012102EB0302A0FB0113A2F5000264
:103AD000002918BF43F001035B0028BF4FEA3303FE
:103AE00042EB22425FEA132C4CEBC2502EBFBCEBE0
:103AF000436FB2F57C0F70474FEA036CBCF1004F87
:103B000008BF20F00100B2F57C0F38BF70470BD51D
:103B100082F0FF0212F5803FC8BF704700F1C0403D
:103B2000D8BF00F00040704700F5000C5FEA4C0C75
:103B300048BF7047B0F1C04000F073B890EA010F81
:103B40000CEAD11348BF42F48072624538BF634526
:103B500004D280EA010000F00040704710B500F088
:103B60001AF800BF8900013E00F007B800F009B85C
:103B70005FEA410C5FEA1C6C08D080EA010000F0AB
:103B800050B85FEA400C5FEA1C6CF6D14FF0004081
:103B9000A0F5800070470EF1020E2EF0030E5EF8C5
:103BA000044B244204D44FEA4102B2F17F4F11D8B2
:103BB0004FEA4003B3F17F4F0CD80ED14FEAD07CCF
:103BC000B2F17F4F0CEB4C0C0CF1020C08BF4CEB2C
:103BD000D17C04E04FF0080C01E04FEAD17C0CEB03
:103BE0004C0324FA03F404F00704B4F1040C06D2E5
:103BF0000EEB840CBDE810404CF0010C6047DFE890
:103C00000CF0070802024FF00040A0F5800010BD44
:103C10000846420018BFD2F1807288BF00F0004011
:103C200010BDFF2141EAD050C005704790EA010F56
:103C300048BF81F000413FF59CAD421A04D882F0A4
:103C40000042A0EB020011444FEAD0524FF07F4CEB
:103C50001CEA410FA2EBD15318BF9CEA026F4AD075
:103C60004FF0004C4CEA00204CEA012121FA03FC01
:103C7000B0EB0C0C0FD412F0FE0F36D05FEA4C0004
:103C80001DD5001240EBC25038BF70471CF03F0FEB
:103C900018BF70470BE0A2F101025FEA1C2040EB65
:103CA000C25038BF70471CF07F0F18BF7047C3F178
:103CB0002003994014BF401E20F001007047800887
:103CC0004FEA122308BF7047B0FA80FCA2EB0C0247
:103CD000CCF1280C60FA0CF093EA122F04BF00EB31
:103CE000C25070474FEAC3707047130A5FEADC1096
:103CF00008BF7047F6E79CEA026F04D010EA5C0F39
:103D000008BF0020704710B5FFF745FF40DFF63EC3
:103D100081F0004070470CF00F03092B08BF08200A
:103D200000F059800A2B0BD0082B18BF704708BF32
:103D30001CF0400F0AD04FF000004FF00001704718
:103D40001CF0400F18BF4FF0004070471CF0100FE0
:103D500008D020F0704300F07F4242EAD3014FEADE
:103D60004370704700F0604021F07F4242EA000259
:103D700001F07F4040EA727070474FF0FF0C4CF446
:103D8000E06C1CEA11531CBF9CEA030C9445C2BFB3
:103D9000DA4201EB02517047002B0DD0BCF1000F4D
:103DA0000FD0002A01F00041A4BF41F0E04141F0F2
:103DB0007F614FF00000704701F000414FF00000BC
:103DC000704750EA01334FF09B0C18BF4CF0806CE9
:103DD0007EF45CAF70471CF4801F11D01CF4E02F00
:103DE00003D06FEACC31490070474FF04050EFF3F9
:103DF000008222F0704242EA000282F3008870479B
:103E00004FF00000704700000000000000000000BC
:103E10000000000004040404040000040000141462
:103E20000A00000000000000000000000A0A1F0A4B
:103E30000A1F0A0A000000040E1505060C14150ED0
:103E40000400000012150D152E2C2A12000000008F
:103E5000040A0A36151529160000020201000000A6
:103E6000000000000000100808040404040408080E
:103E700010000204040808080808040402000000F6
:103E80000004150E0E150400000000000008083E96
:103E9000080800000000000000000000000002020E
:103EA000010000000000003F0000000000000000D2
:103EB00000000000000000020000002010100808B0
:103EC00004040202010000000E1111111111110E63
:103ED00000000000040604040404040E00000000B6
:103EE0000E1111080402011F000000000E11100C39
:103EF0001010110E00000000080C0C0A091F081C0D
:103F0000000000001F01010F1110110E0000000041
:103F10000C12010D1311110E000000001E100808F4
:103F200004040404000000000E11110E1111110E02
:103F3000000000000E111119161009060000000003
:103F40000000040000000004000000000000000465
:103F5000000000040400000010080402020408101D
:103F60000000000000003F003F00000000000000D3
:103F70000204081010080402000000000E111108CD
:103F800004040004000000001C22292D2D1D221C09
:103F90000000000004040C0A0A1E12330000000096
:103FA0000F12120E1212120F000000001E1101015A
:103FB0000101110E000000000F1212121212120F56
:103FC000000000001F120A0E0A02121F000000006B
:103FD0001F120A0E0A020207000000001C12010153
:103FE0003911120C000000003312121E121212338B
:103FF000000000001F0404040404041F000000006B
:104000003E080808080808080907000037120A06D1
:104010000A12123700000000070202020202223FC9
:10402000000000003B1B1B1B151515350000000090
:104030003B1216161A1A1217000000000E11111169
:104040001111110E000000000F12120E02020207E1
:10405000000000000E1111111117190E18000000B8
:104060000F12120E0A121237000000001E11010674
:104070000810110F000000001F1504040404040EB2
:1040800000000000331212121212120C0000000085
:104090003312120A0A0C040400000000151515154D
:1040A0000E0A0A0A000000001B0A0A04040A0A1B7E
:1040B000000000001B0A0A0A0404040E00000000AD
:1040C0001F0908040402121F00001C040404040455
:1040D000040404041C00000202040404080808107C
:1040E00010000E0808080808080808080E00040A4E
:1040F00000000000000000000000000000000000C0
:1041000000000000003F020400000000000000006A
:10411000000000000000000C121C123C0000000314
:104120000202020E1212120E000000000000001C1B
:104130001202120C000000181010101C1212123C77
:10414000000000000000000C121E021C00000018FD
:104150002404041E0404041E000000000000003CAF
:10416000120C021C221C00030202020E1212123751
:1041700000000004040000060404040E000000080F
:104180000800000C08080808080700030202021AC9
:104190000A060A1300000007040404040404041FB0
:1041A000000000000000000F1515151500000000AC
:1041B0000000000F12121237000000000000000C77
:1041C0001212120C000000000000000F1212120E5A
:1041D000020700000000001C1212121C1038000020
:1041E0000000001B06020207000000000000001E85
:1041F000020C101E000000000004041E0404041C35
:10420000000000000000001B1212123C0000000021
:104210000000001B0A0A0404000000000000001552
:10422000150E0A0A000000000000001B0A040A1B09
:10423000000000000000003312120C08040300000C
:104240000000001E0804041E000018080808080CDE
:1042500008080808180008080808080808080808D6
:1042600008080604040404080404040406001609EB
:10427000000000000000000000000000000000003E
:104280000000000000000000000000000008080816
:104290000808080800001818000000486C241200E4
:1042A00000000000000000000000000000242424A2
:1042B0007F1212127F12121200000000081C2A2A1C
:1042C0000A0C1828282A2A1C080800000022251594
:1042D00015152A585454542200000000000C1212E4
:1042E000120A76252911916E0000000606040300CB
:1042F0000000000000000000000000402010100836
:1043000008080808081010204000000204080810DF
:104310001010101010080804020000000000080827
:104320006B1C1C6B0808000000000000000008085F
:1043300008087F08080808000000000000000000CE
:10434000000000000000060604030000000000005A
:104350000000FE000000000000000000000000005F
:104360000000000000000606000000008040402021
:104370002010100808040402020000000018244263
:1043800042424242424224180000000000080E0847
:10439000080808080808083E00000000003C4242E7
:1043A000422020100804427E00000000003C4242EF
:1043B000201820404042221C00000000002030282D
:1043C000242422227E20207800000000007E0202A9
:1043D000021A26404042221C00000000003824023D
:1043E000021A26424242241800000000007E2222C7
:1043F000101008080808080800000000003C4242AD
:10440000422418244242423C00000000001824428A
:10441000424264584040241C00000000000000009C
:10442000181800000000181800000000000000002C
:1044300000080000000000080804000000402010F0
:1044400008040204081020400000000000000000E2
:104450007F0000007F000000000000000002040850
:10446000102040201008040200000000003C4242DE
:10447000464020101000181800000000001C225AAE
:10448000555555552D42221C000000000008081803
:104490001414243C224242E700000000001F2222A4
:1044A000221E22424242221F00000000007C4242A3
:1044B000010101010142221C00000000001F2242F4
:1044C000424242424242221F00000000003F42128C
:1044D000121E12120242423F00000000003F421230
:1044E000121E12120202020700000000003C2222EB
:1044F000010101712122221C0000000000E742425C
:1045000042427E42424242E700000000003E08086C
:10451000080808080808083E00000000007C101089
:104520001010101010101010110F00000077221240
:104530000A0E0A121222227700000000000702026F
:10454000020202020202427F0000000000773636BB
:1045500036362A2A2A2A2A6B0000000000E3464643
:104560004A4A52525262624700000000001C224137
:10457000414141414141221C00000000003F4242B4
:1045800042423E020202020700000000001C2241DB
:10459000414141414D53321C60000000003F424206
:1045A000423E1212222242C700000000007C42421A
:1045B000020418204042423E00000000007F4908EB
:1045C000080808080808081C0000000000E742422C
:1045D000424242424242423C0000000000E7424266
:1045E000222424141418080800000000006B494914
:1045F00049495555362222220000000000E7422496
:1046000024181818242442E7000000000077222212
:10461000141408080808081C00000000007E21206F
:10462000101008040442423F0000007808080808FF
:1046300008080808080808087800000002020404B6
:1046400008080810102020204040001E10101010F4
:1046500010101010101010101E0000384400000040
:10466000000000000000000000000000000000004A
:10467000000000000000000000FF0006080000002D
:10468000000000000000000000000000000000002A
:10469000003C4278444242FC000000000003020259
:1046A000021A26424242261A0000000000000000C2
:1046B000003844020202443800000000006040401C
:1046C00040784442424264D80000000000000000EC
:1046D000003C427E0202423C0000000000F08808DC
:1046E000087E08080808083E0000000000000000DE
:1046F000007C22221C023C42423C000000030202D9
:10470000023A4642424242E700000000000C0C0020
:10471000000E08080808083E0000000000303000C5
:104720000038202020202020221E0000000302024A
:104730000272120A1612227700000000000E08080A
:10474000080808080808083E0000000000000000F3
:10475000007F9292929292B7000000000000000049
:10476000003B4642424242E70000000000000000D9
:10477000003C42424242423C000000000000000077
:10478000001B26424242221E0207000000000000D9
:10479000007844424242447840E0000000000000BB
:1047A00000774C040404041F000000000000000017
:1047B000007C42023C40423E000000000000000835
:1047C000083E08080808083000000000000000004B
:1047D00000634242424262DC000000000000000030
:1047E00000E7422424140808000000000000000034
:1047F00000EB49495555222200000000000000004E
:10480000007624181818246E000000000000000034
:1048100000E74224241418080807000000000000E4
:10482000007E22100808447E000000C020202020C6
:104830002010202020202020C00010101010101068
:1048400010101010101010101010000608080808A2
:10485000081008080808080806000C32C20000000A
:104860000000000000000000000000000000000048
:104870000000000000000000000000000000000038
:104880000000000000000000000000000000000028
:104890000000000000000000000000000000000018
:1048A0000000600060006000600060006000600068
:1048B00040002000200020000000000000006000F8
:1048C00060006000000000000000000000006006C2
:1048D00060063003980188004400000000000000DA
:1048E00000000000000000000000000000000000C8
:1048F00000000000000000000000000000000000B8
:1049000000001002100210021002FE07FE0708024B
:104910000801080108010801FE07FE07040104015F
:10492000040104010000000000000000000000007D
:1049300040004000F00158034C03CC034C005800E9
:104940007000E000C001C00140034C035C034C0355
:104950004801F0004000400000000000000000009E
:1049600000000E010A0191009100910051005100D8
:104970003A00AE03A002500450044804480448041E
:10498000840284030000000000000000000000001A
:10499000000038006C006C006C006C006C002C0097
:1049A00098071C011A01330133016301E300C308B6
:1049B000C6093C07000000000000000000000C00D9
:1049C0001C0010001000080004000000000000009F
:1049D00000000000000000000000000000000000D7
:1049E00000000000000000000000000000000004C3
:1049F00000020001800080004000400020002000F4
:104A00002000200020002000200040004000800006
:104A1000800000010002000400000000000002000D
:104A2000040008001000100020002000400040009A
:104A300040004000400040004000200020001000E6
:104A40001000080004000200000000000000000048
:104A50000000000000004000C0004000460C4E0F67
:104A6000D001F0015E0F460C400040004000000005
:104A70000000000000000000000000000000000036
:104A80000000000000000000400040004000400026
:104A90004000FE0F40004000400040004000000089
:104AA0000000000000000000000000000000000006
:104AB00000000000000000000000000000000000F6
:104AC00000000000000000000000000000000C00DA
:104AD0001C0010001000080004000000000000008E
:104AE00000000000000000000000000000000000C6
:104AF0000000FE07000000000000000000000000B1
:104B000000000000000000000000000000000000A5
:104B10000000000000000000000000000000000095
:104B200000000000000000000000000000001C0069
:104B30001C001C0000000000000000000000000439
:104B40000006000200030001000180008000400018
:104B50004000600020002000100010000800080045
:104B60000C0004000600020000000000000000002D
:104B700000000000F00098010C030C030606060676
:104B80000606060606060606060606060C030C03BF
:104B90009801F0000000000000000000000000008C
:104BA0000000000040007C006000600060006000C9
:104BB00060006000600060006000600060006000F5
:104BC0006000FC0300000000000000000000000086
:104BD00000000000F800840102030603060300033E
:104BE00000018001C00060002000100008020402E3
:104BF0000602FE03000000000000000000000000AC
:104C0000000000007800C600860186018001800156
:104C1000C0007000800100010003000306030603CA
:104C20008601F80000000000000000000000000005
:104C30000000000080018001C001A001A0019001DE
:104C40008801880184018201FE0F800180018001BA
:104C50008001E007000000000000000000000000EC
:104C600000000000FC030400040004000400040031
:104C7000F4008C0104030003000306030603820111
:104C80008401F800000000000000000000000000A7
:104C900000000000E00118030C030C0004000600F3
:104CA000E60116030E0606060606060604060C02B4
:104CB0001803F000000000000000000000000000E9
:104CC00000000000F8070C060402040100010001C6
:104CD00080008000400040004000600060006000F4
:104CE0006000600000000000000000000000000004
:104CF00000000000F8010C030606060606060C027A
:104D00001C03F000C8010C0306060606060606068C
:104D10000C03F00100000000000000000000000093
:104D200000000000F0000C010C0306020606060657
:104D3000060606078C0678060006000300030C0131
:104D40008C0178000000000000000000000000005E
:104D50000000000000000000000000000000E00073
:104D6000E000E00000000000000000000000E000A3
:104D7000E000E00000000000000000000000000073
:104D800000000000000000000000000000006000C3
:104D900060000000000000000000000000000000B3
:104DA00060006000400020002000000000000000C3
:104DB00000000004000200018000400020001000FC
:104DC00008000400080010002000400080000001DE
:104DD00000020004000000000000000000000000CD
:104DE0000000000000000000000000000000FE07BE
:104DF000000000000000FE070000000000000000AE
:104E000000000000000000000000000000000000A2
:104E10000000040008001000200040008000000195
:104E20000002000400020001800040002000100089
:104E30000800040000000000000000000000000066
:104E400000000000E0031806040C040C0C0C0C0C11
:104E50000007800140004000400000000000E0002A
:104E6000E000E00000000000000000000000000082
:104E70000000E00018030C02CC0564056605A605D9
:104E8000B604B604B604B604B602E4010C040C027F
:104E90001803F00000000000000000000000000007
:104EA00000000000600060005000D0009000900002
:104EB000880088010801F8010403040304020202C7
:104EC00002060F0F000000000000000000000000BC
:104ED00000000000FE008C030C030C030C030C0309
:104EE0008C01FC000C030C020C060C060C060C06D4
:104EF0000C03FE01000000000000000000000000A4
:104F000000000000E00318030C060C040404060073
:104F10000600060006000600060006040C040C024B
:104F20001803F00000000000000000000000000076
:104F3000000000007F008C010C030C030C060C0623
:104F40000C060C060C060C060C060C060C030C03D7
:104F50008C017F0000000000000000000000000045
:104F600000000000FF030603060406040600860096
:104F70008600FE0086008600860006000604060401
:104F80000602FF0300000000000000000000000017
:104F900000000000FF030603060406040600860066
:104FA0008600FE00860086008600060006000600D9
:104FB00006001F00000000000000000000000000CC
:104FC00000000000F00018010C020C0204020600B0
:104FD000060006000600C60F060306030C030C03BA
:104FE0001803F000000000000000000000000000B6
:104FF000000000000F0F0606060606060606060657
:105000000606FE0706060606060606060606060647
:1050100006060F0F00000000000000000000000066
:1050200000000000FC0360006000600060006000A1
:105030006000600060006000600060006000600070
:105040006000FC0300000000000000000000000001
:1050500000000000F807C000C000C000C000C00091
:10506000C000C000C000C000C000C000C000C00040
:10507000C000C000C60066003C0000000000000048
:1050800000000000CF038601C6004600260016007F
:1050900036002E006E004600C6008600860106011E
:1050A00006038F0700000000000000000000000061
:1050B000000000001F0006000600060006000600B3
:1050C00006000600060006000600060006040604A8
:1050D0000602FF03000000000000000000000000C6
:1050E000000000000707860386038E038E034E032D
:1050F0004E034A035A035A033A033203320332037C
:1051000012038707000000000000000000000000FC
:10511000000000008E0F0C021C021C02340234023C
:10512000640264024402C40284028403840304030C
:1051300004031F0200000000000000000000000047
:1051400000000000F00098010C030C0206060606A1
:105150000606060606060606060606060C020C03EA
:105160009801F000000000000000000000000000B6
:1051700000000000FF0006030606060606060606F7
:1051800006068603FE00060006000600060006006E
:1051900006001F00000000000000000000000000EA
:1051A00000000000F00098010C030C020606060641
:1051B0000606060606060606060676064C02CC031A
:1051C0009801F000800700030000000000000000CC
:1051D00000000000FF010603060606060606060696
:1051E0000603FE004600C60086008601060306038D
:1051F00006060F0E00000000000000000000000086
:1052000000000000F8020C030602060206000E0071
:105210003C00F800E00380030007020602060606D1
:105220000C03F0010000000000000000000000007E
:1052300000000000FE076204610861086000600071
:10524000600060006000600060006000600060005E
:105250006000F801000000000000000000000000F5
:10526000000000001E070C020C020C020C020C02D3
:105270000C020C020C020C020C020C020C020C02BE
:105280001801F00000000000000000000000000015
:10529000000000000F070602040104010C010C01CC
:1052A000880088009800980050005000700030007E
:1052B00020002000000000000000000000000000AE
:1052C00000000000F70E6204420446044604640233
:1052D0006402E402E4029C029C01980198018801A6
:1052E00088008800000000000000000000000000AE
:1052F000000000009E070C01080118019000B0009A
:105300006000200060006000D0009000880108016B
:1053100004038E07000000000000000000000000F1
:10532000000000000F0F060404020C02080118011F
:10533000B800B000700060006000600060006000B5
:105340006000F80100000000000000000000000004
:1053500000000000FC070C0206030201800180002F
:1053600040004000200020001000180008040C0439
:105370000402FE0300000000000000000000E00343
:10538000200020002000200020002000200020001D
:10539000200020002000200020002000200020000D
:1053A000200020002000E0030000000000000000BA
:1053B00000000400040008000800100010001000A5
:1053C0002000200040004000C0008000800000015C
:1053D00000010002000200020004000000007C0046
:1053E00040004000400040004000400040004000BD
:1053F00040004000400040004000400040004000AD
:105400004000400040007C00000000006000900070
:105410000801000000000000000000000000000083
:10542000000000000000000000000000000000007C
:10543000000000000000000000000000000000006C
:10544000000000000000000000000000000000005C
:10545000000000000000000000000000000000004C
:105460000000000000000000FF0F00000000180016
:1054700060000000000000000000000000000000CC
:10548000000000000000000000000000000000001C
:10549000000000000000000000000000000000000C
:1054A0000000000000000000000000000000F0010B
:1054B0000C030C030003E0031C030E0306030603A6
:1054C0008E0B7C0E000000000000000000000000B9
:1054D000000008000E000C000C000C000C00CC01B9
:1054E0003C031C060C060C060C060C060C060C02F3
:1054F0001C03E401000000000000000000000000A8
:105500000000000000000000000000000000F000AB
:105510008C018C01860106000600060006020C02C2
:105520000C01F0000000000000000000000000007E
:1055300000000002C003000300030003000378031F
:105540008C030C0306030603060306030603040389
:105550008C0778010000000000000000000000003F
:105560000000000000000000000000000000E0015A
:10557000180308020C060C06FC070C000C001804AB
:105580001802E00100000000000000000000000020
:1055900000000000C0036006300630003000FE014D
:1055A000300030003000300030003000300030007B
:1055B0003000FC01000000000000000000000000BE
:1055C0000000000000000000000000000000F007E4
:1055D000D8068C018C018C019801F8000C00FC00AD
:1055E000CC03060306038E03F80000000000000051
:1055F000000008000E000C000C000C000C00EC0178
:105600001C030C030C030C030C030C030C030C0312
:105610000C039E07000000000000000000000000D6
:1056200000000000600060000000000040007C00FE
:10563000600060006000600060006000600060006A
:105640006000FC03000000000000000000000000FB
:1056500000000000C001C001000000000001F001D6
:105660008001800180018001800180018001800132
:10567000800180018001CC007C000000000000005F
:10568000000008000E000C000C000C000C008C0345
:105690008C008C004C006C005C008C008C010C01B8
:1056A0000C039E0700000000000000000000000046
:1056B000000040007C00600060006000600060004E
:1056C00060006000600060006000600060006000DA
:1056D0006000FC030000000000000000000000006B
:1056E000000000000000000000000000000037077C
:1056F000EE066606660666066606660666066606C2
:105700006606FF0F0000000000000000000000001F
:105710000000000000000000000000000000EE019A
:105720001C030C030C030C030C030C030C030C03F1
:105730000C039E07000000000000000000000000B5
:105740000000000000000000000000000000F00069
:1057500098010C03060606060606060606060C0356
:105760000C03F0000000000000000000000000003A
:105770000000000000000000000000000000EE013A
:105780001C030C060C060C060C060C060C060C037F
:105790001C03EC010C000C003E00000000000000A7
:1057A000000000000000000000000000000078027F
:1057B0008C030C0306030603060306030603040317
:1057C0008C03780300030003C00700000000000002
:1057D00000000000000000000000000000009F0327
:1057E000580638061800180018001800180018008D
:1057F0001800FF0000000000000000000000000092
:105800000000000000000000000000000000F003A5
:105810001C030C020C023800F000C0030403040354
:105820008C03FC01000000000000000000000000EC
:105830000000000000002000200030003000FE01C9
:1058400030003000300030003000300030003002D6
:105850003002E00100000000000000000000000035
:1058600000000000000000000000000008028E039D
:105870000C030C030C030C030C030C030C030C03B0
:105880009C077801000000000000000000000000FC
:1058900000000000000000000000000000001E07E3
:1058A0000C020801080118019000B000B00060006F
:1058B0006000200000000000000000000000000068
:1058C0000000000000000000000000000000F70ED3
:1058D0006204460464026402EC029C01980198018F
:1058E0009801080000000000000000000000000017
:1058F0000000000000000000000000000000BC07E5
:1059000018011001B00060006000E0009000080184
:1059100008039E07000000000000000000000000D7
:1059200000000000000000000000000000009E07D2
:1059300008010801080190009000B00060006000BC
:1059400060002000200024001C0000000000000077
:105950000000000000000000000000000000FC014A
:105960008401C400440060002000300018020802D6
:105970000C03FC0100000000000000000000000318
:105980008000800080008000800080008000800017
:1059900040002000400080008000800080008000E7
:1059A00080008000800000030000400040004000B4
:1059B00040004000400040004000400040004000E7
:1059C00040004000400040004000400040004000D7
:1059D00040004000400040004000000000000C007B
:1059E0001000100010001000100010001000100037
:1059F00020004000200010001000100010001000D7
:105A00001000100010000C00000000001C00220418
:105A1000C20480030000000000000000000000003D
:105A20000000000000000000000000000000000076
:105A30000000000000000000000000000000000066
:105A40000000000000000000000000000000000056
:105A50000000000000000000000000000000000046
:105A60000000000000000000000000000000000036
:105A70000000000000000000000000000000000026
:105A800000000000C001C001C001C001C001C00190
:105A9000C0018000800080008000800080008000C5
:105AA00000000000000000008001C003C00380016E
:105AB00000000000000000000000000000000000E6
:105AC000E01CE01CF01E700E38071803080184006B
:105AD00000000000000000000000000000000000C6
